:020000040002F8
:10600000D0EA0020C1630200C9630200CB63020032
:10601000CD630200CF630200D163020000000000E4
:10602000000000000000000000000000D363020038
:10603000D563020000000000D7630200D9630200AC
:10604000A16B0200DB630200816E0200856D02001D
:10605000996D0200DB630200D16A0200DB6302007B
:10606000DB630200DB630200DB630200DB63020030
:10607000DB630200DB630200DB630200DB63020020
:10608000DB630200E16C0200DB630200DB63020001
:10609000DB630200DB630200AD6D0200DB63020024
:1060A000DB630200DB630200DB630200DB630200F0
:1060B000DB630200DB630200000000000000000060
:1060C000DB630200DB630200DB630200DB630200D0
:1060D000DB630200DB630200DB6302000000000000
:1060E00000000000000000000000000000000000B0
:1060F00000000000000000000000000000000000A0
:10610000000000000000000000000000000000008F
:10611000000000000000000000000000000000007F
:10612000000000000000000000000000000000006F
:10613000000000000000000000000000000000005F
:10614000000000000000000000000000000000004F
:10615000000000000000000000000000000000003F
:10616000000000000000000000000000000000002F
:10617000000000000000000000000000000000001F
:10618000000000000000000000000000000000000F
:1061900000000000000000000000000000000000FF
:1061A00000000000000000000000000000000000EF
:1061B00000000000000000000000000000000000DF
:1061C00000000000000000000000000000000000CF
:1061D00000000000000000000000000000000000BF
:1061E00000000000000000000000000000000000AF
:1061F000000000000000000000000000000000009F
:10620000DFF80CD000F090FA00480047DDB2020041
:10621000D0EA002030B450E8012F93B2C48923445F
:106220008489A34228BF1B1B0489A34202BFBFF37A
:106230002F8F002007E0C3EA020340E80134002C5E
:10624000E9D14FF001000A6030BC704750E8012FDF
:10625000C2EA024240E801210029F7D1704730B478
:1062600050E8022F1FFAA2F3C488A34202BFBFF373
:106270002F8F00200DE0C48923448489A34228BFC6
:106280001B1BC2EA034340E80234002CE8D14FF064
:1062900001000A6030BC704750E8022FC2EA224277
:1062A00040E802210029F7D17047034653E8022F46
:1062B000D988B2EB324F4FF0000017BF92B241EADB
:1062C000014142EA014104E05A68B2EB324F08BF93
:1062D000012043E80212002AE8D1704730B4044696
:1062E00054E8000F0D4644E80053002BF8D1156028
:1062F00030BC704730B4044654E8000F40EA010552
:1063000044E80053002BF7D1156030BC704730B41F
:10631000044654E8000F00EA010544E80053002B4E
:10632000F7D1156030BC704730B4044654E8000F14
:1063300080EA010544E80053002BF7D1156030BC1A
:10634000704730B4044654E8000F00EB010544E800
:106350000053002BF7D1156030BC704730B40446B1
:1063600054E8000FA0EB010544E80053002BF7D1DF
:10637000156030BC704770B404464FF0000054E81C
:10638000006F0D68AE4207BF44E80023012044E8D7
:1063900000630E60002B1CBF0020F0E770BC70474C
:1063A00030B4044654E8000F88422CBF451A054615
:1063B00044E80053002BF5D1156030BC7047000055
:1063C0000648804706480047FEE7FEE7FEE7FEE78F
:1063D000FEE7FEE7FEE7FEE7FEE7FEE7C56D02002B
:1063E000016202002DE9F05F0546002092469B46BF
:1063F00088460646814640241BE0284641464746DB
:10640000224600F03FF953465A46C01A914110D334
:1064100011461846224600F016F82D1A67EB0108BF
:106420004F4622460120002100F00DF817EB00092D
:106430004E41201EA4F10104DFDC484631462A46C5
:106440004346BDE8F09F202A04DB203A00FA02F11F
:10645000002070479140C2F1200320FA03F3194352
:106460009040704700487047081B030010B5044671
:10647000FFF7F8FF0068005D00F0010010BD40EA82
:1064800001039B0703D009E008C9121F08C0042AB2
:10649000FAD203E011F8013B00F8013B521EF9D299
:1064A0007047D2B201E000F8012B491EFBD27047C1
:1064B0000022F6E710B513460A4604461946FFF7D0
:1064C000F0FF204610BD10B5044604E00B7800F83C
:1064D000013B03B1491C521EF8D2204610BD421C9C
:1064E00010F8011B0029FBD1801A7047034611F8F0
:1064F000012B00F8012B002AF9D118467047000043
:106500000FB400B58DB010A909900B9000914FF019
:10651000FF300A9000200C9005480690054807902F
:106520006A4609A80F9900F0D1F80DB05DF814FB88
:10653000E9660200076702002DE9FF5F1D464FF084
:10654000FF3BD5E9014691465F464FF00008A96937
:106550007F1C01988847296A824688470028F6D11F
:10656000BAF1FF3F0CD024F4C064002E19DD6006A0
:1065700014D5BAF12B0F09D0BAF12D0F0ED103E0CB
:10658000584604B0BDE8F09F44F48064A9697F1CBC
:1065900001988847761E8246002E02DDBAF1300F40
:1065A00003D0B9F1000F26D032E0A969761E44F479
:1065B00000747F1C019888478246002E05DDBAF1E1
:1065C000780F06D0BAF1580F03D0B9F1000F10D0F0
:1065D0001EE0B9F1000F02D0B9F1100F18D1A9696E
:1065E000761E24F400747F1C019888478246102090
:1065F00002E0082000E00A20814609E008FB0908C3
:10660000A969761E44F400747F1C0198884782466D
:10661000002E05DD4946504600F044F80028EDDA2A
:10662000E96901988847A00502D46FF00100A8E746
:10663000E00725D1600613D5600502D5C8F100003A
:1066400000E0404629680A1D2A600968220501D534
:10665000087015E0220701D5088011E008600FE0FE
:106660002868011D29600068210502D580F8008096
:1066700006E0210702D5A0F8008001E0C0F8008004
:1066800038467EE7202A04DB203A21FA02F0002176
:10669000704721FA02F3D040C2F120029140084332
:1066A000194670473A2800D2303820F02002412A9B
:1066B00001D3A2F13700884201D34FF0FF30704779
:1066C000026811441378016018467047D16004498C
:1066D00051610449116200211161114600F036B880
:1066E000C16602006D640200426842B1016811F89F
:1066F000013B23B1521EC0E9001218467047012128
:10670000C160881E704742685AB1C368016843B9C6
:1067100083688B4205D0491E521CC0E9001200203C
:1067200070474FF0FF307047064C074D06E0E068B9
:1067300040F0010394E8070098471034AC42F6D3C8
:10674000FFF762FD80220300A02203002DE9F34F32
:106750008BB04FF0000801F10C000C464FF0010B1C
:1067600046460DF1080A019062690121019890479F
:10677000051E2DD0252D2CD0216A8847C0B1626915
:10678000012101989047216A88470028F7D1411ECE
:1067900062690198904700E0761CA1690B988847D0
:1067A000216A88470028F7D1E1690B988847DBE721
:1067B000A1690B9888470746A84201D1761CD3E708
:1067C000E1690B9888477F1C02D1B8F1000F6FD0A8
:1067D00046E1002762693D463946019890472A28DC
:1067E00004D162690121019890470125DFF8849264
:1067F0006269012101989047A0F130010A290AD26B
:106800004F45E5DC07EB870100EB4107303FDFD464
:1068100045F01005ECE7E90601D46FF000476C285D
:106820000AD04C2814D0682815D06A280DD07428B6
:106830001CD07A281AD01DE0626901210198904786
:106840006C2802D045F0040514E045F002050DE087
:1068500045F020050AE06269012101989047682807
:1068600002D045F0080505E045F4006562690121A4
:1068700001989047C4E9015765283DD019DC582894
:106880007AD00CDC452837D004DC252826D04128D6
:1068900031D131E046282FD047282CD12CE05B287D
:1068A00077D0612828D063287CD0642823D15AE08F
:1068B000D0E06F2848D008DC66281DD067281BD0A0
:1068C000692821D06E2816D127E0702845D073287A
:1068D00068D0752847D078280DD14DE0A1690B9874
:1068E0008847054625283FF469AFE1690B9888473A
:1068F0006D1C3FF46AAFB3E023466A466FF00100B7
:106900000B99AFF300809EE045F040006060A8075F
:1069100023464FF0000236D43EE0E8077FF447AF4D
:106920002068011D21600068290501D506701BE75C
:10693000290701D5068017E7A90703D5F117C0E994
:10694000006111E706600FE745F040006060A807AE
:1069500023464FF0080216D41EE040F60E0125EA49
:106960000100606016E045F040006060A807234623
:106970004FF00A0207D40FE045F040006060A8071E
:1069800008D5234610226FF001000B99AFF3008069
:1069900059E007E0234610226FF001000B99FFF742
:1069A000CBFD50E04FF000094F464B46632802D024
:1069B0005B2806D040E0E80601D40120A060012752
:1069C0003AE062690121019890475E2805D14FF0B5
:1069D00001096269494601989047216939B9002146
:1069E0000A46534643F82120491C0829FADBB0B374
:1069F000216969B9C11700EBD16253110AEB830118
:106A000022F01F02821A01200B68904003430B60A2
:106A100062690121019890475D28E8D1B9F1000F22
:106A200009D00020514651F82020D24341F82020BF
:106A3000401C0828F7DB02AB224600976FF00100EC
:106A40000B99AFF3008000280CDA401C08D1BBF191
:106A5000000F05D04FF0FF300DB0BDE8F08FFFE71D
:106A60004046F9E7E90701D108F1010806444FF073
:106A7000000B79E6CCCCCC0C70B58C1810F8015B0F
:106A800015F0070301D110F8013B2A1106D110F8C7
:106A9000012B03E010F8016B01F8016B5B1EF9D1CB
:106AA0002B0705D40023521E0DD401F8013BFAE751
:106AB00010F8013BCB1A921C03E013F8015B01F8BC
:106AC000015B521EF9D5A142D8D3002070BD000051
:106AD0002DE9F84F0026002000904FF48077012523
:106AE000002410E0384605F0E5FB40B100BF254822
:106AF0000068284018B1384605F0CEFB2E436D00E3
:106B0000381D87B2641C082CECD34FF4BE7005F01E
:106B1000D1FB50B14FF4BE7005F0BEFB46F000460D
:106B20006A460121002005F031FBF0B210B30125C7
:106B300000241DE005EA0600C0B100BF124850F86D
:106B40002400C0F30420814600BF0F4850F8240001
:106B5000C0F301408246204603F030F98046B8F188
:106B6000000F02D051464846C04700BF6D00641C6C
:106B7000082CDFD306F0004010B1684607F0D2FDC4
:106B8000BDE8F88F046300401065004070B504460E
:106B90000D46164632462946204604F007F870BDD9
:106BA00010B54FF4807004F0B0FF80B14FF48070E6
:106BB00004F0B4FF012004F0BBFF0D48407930B968
:106BC00001200B49487108460168002088474FF4AE
:106BD000827004F09AFF50B14FF4827004F09EFF6F
:106BE000022004F0A5FF024801680120884710BD7B
:106BF000D4AD002038B500245FE06946334807F083
:106C00006CFF33480078012804D002281ED00628E3
:106C10004ED143E09DF80000B12809D100202D4954
:106C20000870FF202C4908700220294908700CE0E8
:106C30009DF80000062801D1032406E09DF800001D
:106C4000152801D1042400E0052435E0214800780E
:106C5000FE281EDA9DF8000020491E4A127888544A
:106C60001C480078002806DD1B4800789DF80010BD
:106C700048401949087017480078401CC0B21549AF
:106C8000087016490978884207D106201049087013
:106C900003E001200E49087005240DE09DF8000076
:106CA0000D490978884201D1072400E0052400BF7E
:106CB00001200749087000BF00BF044807F0FEFE2E
:106CC00008B1002C99D0204638BD000008B400203F
:106CD00094AD002095AD002096AD002046B4002074
:106CE00010B5034A1068034A1168884710BD0000B8
:106CF00054AE002050AE002010B500F051FD10BD84
:106D00002DE9F047074688461646C24607EB47017D
:106D10001B4800EBC109D9F8140020B1012811D09B
:106D2000022826D11EE0484600F072FD0546B54215
:106D300001D2002405E0344632465146484600F070
:106D4000AEFD18E0484600F063FD0546B54201D2AD
:106D5000284600E03046044622465146484600F0A8
:106D60009EFD08E032465146484600F05FFD04466D
:106D700001E0002400BF00BF2046BDE8F08700000E
:106D800050C8002010B50249024809F0A5FC10BD0A
:106D900034C100200030004010B503494FF04020BE
:106DA00009F09AFC10BD000070C1002010B506F07B
:106DB0008BF910BD01480249086070470090D0036C
:106DC000D8AE002000B52B48006840F47000294977
:106DD000086000BF00BF00BFBFF34F8F00BF00BF00
:106DE00000BF00BF00BF00BFBFF36F8F00BF00BF79
:106DF00000BF2148006800F0004028B91E48001D6F
:106E0000006800F0004088B3012007F0CDF815209D
:106E10001949086007F0D2F815214FF01020C0F88A
:106E2000041207F0CBF8002007F0BEF800BF00BF47
:106E300000BF00BF00BFBFF34F8F00BF00BF00BF48
:106E40000C487C38006800F4E0600C490843001DE1
:106E500008497C39086000BF00BF00BFBFF34F8FF7
:106E600000BF00BF00BF00BF00BFFDE7FFE7FFF7A7
:106E7000A1FF00BD88ED00E0001200100000FA053F
:106E800010B502490868804710BD0000DCAD002045
:106E90002DE9F041054600242E4630781F2875D292
:106EA000DFE800F0103363758697A8B9CAF1EFEEFA
:106EB000EDECEBEAE9E8E7E6E5E4E3E2E1E0DFDE7A
:106EC000DDDCDB00FD480079FD498870FB48407936
:106ED000C870FA48407940B1F8484079F7490979D3
:106EE00001EB810100EB410401E0F4480479F5492C
:106EF000F54A891AC908032242EA01402246F3A151
:106F000005F06CFCEE480480B8E3EC494B790A7953
:106F1000EC49ED4FC91BC908032747EA0140EFA11F
:106F200005F068FCE5480079E5498871E348407957
:106F3000C871E248407940B1E0484079DF490979B9
:106F400001EB810100EB410401E0DC480479DD49FB
:106F5000DD4A891AC908032242EA01402246E6A115
:106F600005F03CFCD648848088E3D4490A79D549A9
:106F7000D54BC91AC908032343EA0140E2A105F031
:106F80002DFCCE480079CE49087277E36BE3CB49FC
:106F90000A79CC49CC4BC91AC908032343EA0140FA
:106FA000E0A105F01BFCC5480179C548417265E3C5
:106FB000C2490A79C349C44BC91AC908032343EA21
:106FC0000140DFA105F00AFCBC480179BC48817290
:106FD00054E3BA490A79BB49BB4BC91AC908032310
:106FE00043EA0140DDA105F0F9FBB4480179B4485A
:106FF000C17243E3B1490A79B249B34BC91AC9080E
:10700000032343EA0140DCA105F0E8FBAB4801792A
:10701000AB48017332E3A9490A79AA49AA4BC91AB4
:10702000C908032343EA0140DAA105F0D7FBA348CE
:107030000179A348417321E3A0490A79A149A24BF0
:10704000C91AC908032343EA0140D9A105F0C6FBC8
:107050009A4801799A48817310E3F3E2E1E2CFE2C2
:10706000BDE2ABE299E287E275E25BE20DE1FBE0B3
:10707000E9E0D7E0C5E0B3E0A1E08FE07DE059E0D2
:1070800035E011E0FFE78D490A798E498E4BC91A28
:10709000C908032343EA0140CCA105F09FFB8748C0
:1070A00001798748C173E9E284480079CE49887044
:1070B00082484079C8708148407940B17F48407922
:1070C0007E49097901EB810100EB410401E07B4835
:1070D00004797C497C4A891AC908032242EA0140A2
:1070E0002246C2A105F07AFBBF480480C6E273487D
:1070F0000079BD4988717148407988716F4840793D
:1071000040B16E4840796D49097901EB810100EB8E
:10711000410401E0694804796A496B4A891AC9083F
:10712000032242EA01402246B5A105F057FBAE48D2
:107130008480A3E261480079AB4988725F48407956
:10714000C8725E48407940B15C4840795B49097932
:1071500001EB810100EB410401E0584804795949F1
:10716000594A891AC908032242EA01402246A9A1C4
:1071700005F034FB9C48048180E250490A7951496A
:10718000514BC91AC908032343EA0140A5A105F0E0
:1071900025FB4A480079944908736FE247490A7908
:1071A0004849494BC91AC908032343EA0140A4A12D
:1071B00005F014FB414801798B4841735EE23F4979
:1071C0000A794049404BC91AC908032343EA0140E0
:1071D000A2A105F003FB39480179834881734DE290
:1071E00036490A793749384BC91AC908032343EA93
:1071F0000140A1A105F0F2FA304801797A48C17343
:107200003CE22E490A792F492F4BC91AC90803239A
:1072100043EA01409FA105F0E1FA2848017972484C
:1072200001742BE225490A792649274BC91AC90856
:10723000032343EA01409EA105F0D0FA1F480179DB
:10724000694841741AE21D490A791E491E4BC91A40
:10725000C908032343EA01409CA105F0BFFA17487F
:1072600001796148817409E214490A791549164B7C
:10727000C91AC908032343EA01409BA105F0AEFAED
:107280000E4801795848C174F8E10C4800799D49CD
:1072900088700A484079C87008494B790A790949C9
:1072A000094FC91BC908032747EA014096A105F009
:1072B000A1FA0248007993490880DFE146B4002032
:1072C00040B5002018230300B0220300446174611C
:1072D000204C4D37353A202564000000526177205C
:1072E00044617461204248313735303A20256420AA
:1072F000202D2D20202564004461746120424831F6
:107300003735303A2025640052617720446174613A
:10731000204C45445F315F5A4F4E455F313A20253E
:10732000640000005261772044617461204C454440
:107330005F325F5A4F4E455F313A202564000000AE
:107340005261772044617461204C45445F335F5A39
:107350004F4E455F313A202564000000526177208E
:1073600044617461204C45445F345F5A4F4E455F21
:10737000313A202564000000526177204461746135
:10738000204C45445F355F5A4F4E455F313A2025CA
:10739000640000005261772044617461204C4544D0
:1073A0005F365F5A4F4E455F313A2025640000003A
:1073B0005261772044617461204C45445F375F5AC5
:1073C0004F4E455F313A202564000000526177201E
:1073D00044617461204C45445F385F5A4F4E455FAD
:1073E000313A20256400000050B5002044617461EA
:1073F0002054454D505F44485431313A20256400B3
:10740000446174612048554D495F44485431313AD4
:107410002025640044617461204C4D33353A2025A9
:10742000640000005261772044617461204C45443F
:107430005F315F5A4F4E455F323A202564000000AD
:107440005261772044617461204C45445F325F5A39
:107450004F4E455F323A202564000000526177208C
:1074600044617461204C45445F335F5A4F4E455F21
:10747000323A202564000000526177204461746133
:10748000204C45445F345F5A4F4E455F323A2025C9
:10749000640000005261772044617461204C4544CF
:1074A0005F355F5A4F4E455F323A20256400000039
:1074B0005261772044617461204C45445F365F5AC5
:1074C0004F4E455F323A202564000000526177201C
:1074D00044617461204C45445F375F5A4F4E455FAD
:1074E000323A2025640000005261772044617461C3
:1074F000204C45445F385F5A4F4E455F323A202555
:107500006400000064B5002052617720446174611A
:10751000205049523A20256420202D2D202025641A
:107520000000000057480079574988715548407954
:10753000C87154494B790A795449554FC91BC90838
:10754000032747EA014053A105F054F94D4800795B
:107550004D49888092E04B490A794C494C4BC91AF5
:10756000C908032343EA014051A105F037F9454812
:1075700000794549087281E042490A794349444B00
:10758000C91AC908032343EA014050A105F026F9AE
:107590003C4801793C48417270E03A490A793B49DC
:1075A0003B4BC91AC908032343EA01404EA105F029
:1075B00015F934480179344881725FE031490A791C
:1075C0003249334BC91AC908032343EA01404DA18C
:1075D00005F004F92B4801792B48C1724EE0294986
:1075E0000A792A492A4BC91AC908032343EA0140E8
:1075F0004BA105F0F3F823480179234801733DE0DE
:1076000020490A792149224BC91AC908032343EAB0
:1076100001404AA105F0E2F81A4801791A4841737D
:107620002CE018490A791949194BC91AC9080323CA
:1076300043EA014048A105F0D1F812480179124807
:1076400081731BE00F490A791049114BC91AC90807
:10765000032343EA014047A105F0C0F80948017936
:107660000948C1730AE00949094A891AC90803226D
:1076700042EA014046A105F0A7F800BF00BFBDE8FF
:10768000F081000046B4002064B5002018230300F8
:10769000B02203005261772044617461204D51385B
:1076A0003A20256420202D2D202025640000000094
:1076B0005261772044617461204C45445F315F5AC8
:1076C0004F4E455F333A2025640000005261772019
:1076D00044617461204C45445F325F5A4F4E455FB0
:1076E000333A2025640000005261772044617461C0
:1076F000204C45445F335F5A4F4E455F333A202557
:10770000640000005261772044617461204C45445C
:107710005F345F5A4F4E455F333A202564000000C6
:107720005261772044617461204C45445F355F5A53
:107730004F4E455F333A20256400000052617720A8
:1077400044617461204C45445F365F5A4F4E455F3B
:10775000333A20256400000052617720446174614F
:10776000204C45445F375F5A4F4E455F333A2025E2
:10777000640000005261772044617461204C4544EC
:107780005F385F5A4F4E455F333A20256400000052
:1077900044617461204572726F72202121210000C2
:1077A00010B5124C02202061606111A0A061134944
:1077B000E1614FF4007121620021A1626162E16226
:1077C0000BA0A0640E49E164102121650021A16590
:1077D0006165E1650BA1E01DFEF788FE0AA1204668
:1077E000FEF784FE2020A07110BD000038C80020E4
:1077F0005465726D696E616C00000000B0C80020B5
:10780000B0CA002052545400534547474552000027
:1078100010B501460A69CB689A4204D88C68641E88
:10782000E41AA01801E0D41A601E10BD2DE9F0473B
:107830000446894617464FF0000AE56800BFD4F8B1
:107840001080A84503D9A8EB0500461E04E0A5EB6F
:107850000800401CA1680E1AA068401BB04201D964
:10786000304601E0A068401B0646BE4201D23046C9
:1078700000E0384606466168481932464946FEF738
:10788000FEFDB244B144BF1B3544A068A84200D1FC
:107890000025E560002FD2D15046BDE8F0872DE9E4
:1078A000F047044689461546E668A068871BAF4244
:1078B00008D9616888192A464946FEF7E0FD701923
:1078C000E06010E0B8466168881942464946FEF714
:1078D000D6FDA5EB070809EB070142466068FEF7F5
:1078E000CEFDC4F80C80BDE8F08700000FB4054B56
:1078F00010B503A9044A029800F04EF810BC5DF8D8
:1079000014FB0000E1A9020068AE00200FB4084B90
:1079100010B504A902AA039800F03EF8044602A993
:10792000002000F099F9204610BC5DF814FB00001F
:10793000597C020002E008C8121F08C1002AFAD1CF
:1079400070477047002001E001C1121F002AFBD1DF
:10795000704700000146202908DA012088400A4AC1
:10796000104008B1012070470020FCE7402909DAE7
:10797000A1F12000012202FA00F008B10120F2E793
:107980000020F0E70120EEE7FC06FFBD00BFEFF3AB
:107990001081084672B670472DE9FF4F8DB09B46A7
:1079A0000F460446002606E025280BD05A460F99BC
:1079B0009047641C761C20780028F5D111B0304621
:1079C000BDE8F08F0025A8460122984900E0054354
:1079D00014F8013F203B02FA03F00842F7D1207867
:1079E0002E2817D114F8010F45F004052A280ED0CF
:1079F0006FF02F022078A0F1300109290AD808EB96
:107A0000880102EB410100EB0108641CF2E757F822
:107A1000048B641C20786C280DD004DC4C2812D018
:107A20006A2811D104E074280DD07A280CD10AE01C
:107A300045F4001507E0617845F48015814202D1D4
:107A4000641C05F58015641C2278692A45D008DC81
:107A5000002AB3D0582A69D0632A10D0642A08D1EA
:107A60003BE0702A67D0732A13D0752A5CD0782A3D
:107A70005CD010465A460F999047761CD3E017F811
:107A8000040B8DF8000000208DF80100E94601206C
:107A900003E057F8049B4FF0FF3069074FF00005F3
:107AA00001D40AE06D1C45450DDA8542FADB19F870
:107AB00005100029F6D106E06D1C8542FCDB19F8A3
:107AC00005100029F8D12E4404E019F8010B5A469C
:107AD0000F9990476D1EF8D2A5E00A200021CDE94C
:107AE0000801C5F3025002280DD001CFC117031EB3
:107AF00071F100030DDA4FF0000CD0EB0C006CEBD1
:107B000001012D2308E0FF1D27F00707F7E8020118
:107B1000EDE72B0504D52B238DF8283001233BE01E
:107B2000EB0739D02023F7E70A2000E010200021DE
:107B3000CDE9080107E01020002145F00405CDE95A
:107B400008014FF00808C5F3025002280FD001CFFA
:107B500000214FF0000A2B071FD5702A0DD0DDE958
:107B600008C38CF0100C5CEA030C0CD015E0FF1D70
:107B700027F00707F7E80201EBE740228DF82820FD
:107B80004FF0010A0BE050EA010306D030238DF8D4
:107B900028308DF8292002239A46582A04D024A29E
:107BA0000DF120090B9209E026A2F9E7DDE908238F
:107BB000FEF718FC0B9B9B5C09F8013D50EA0102A3
:107BC000F4D1ADEB090020300890680701D44FF0E4
:107BD00001080899884502DDA8EB010000E00020BB
:107BE0008046002506E00AA85A46405D0F99904756
:107BF0006D1C761C5545F6DB04E030205A460F9983
:107C00009047761CB8F10001A8F10108F5DC05E009
:107C100019F8010B5A460F999047761C0899481E8F
:107C200008900029F4DC641CC5E600000928010066
:107C300030313233343536373839616263646566E2
:107C400000000000303132333435363738394142A4
:107C500043444546000000000A68531C0B60107046
:107C6000704700000146002014E00C4A32F8202042
:107C70008A420DD0094A02EB8002927842B9074A43
:107C800022F820100122054B03EB80039A7003E0D9
:107C9000421C90B23228E8DB00BF704778B4002065
:107CA0000246002104E0505C08B101207047491CE5
:107CB0000629F8D30020F9E770B504460D4604F212
:107CC0002740FFF7EDFF0646012D06D0022D0DD00F
:107CD000032D11D0042D19D113E0A07928B194F807
:107CE000240010B90EB1012070BD00BFE07910B1C1
:107CF0000EB10220F8E700BF207A08B10320F3E7B5
:107D000000BF607A08B10420EEE700BF0020EBE777
:107D10000146481C052290FBF2F302FB1300C0B29F
:107D20007047014691F82420012A01D1EE2000E09D
:107D30001F20704710B501220221002001F048FBEE
:107D4000044600BF1CB1072C01D0204610BD00BF67
:107D500007220221012001F03BFB044600BF1CB1B9
:107D6000072C01D02046F1E700BF0A220021084677
:107D700001F02EFB044600BF1CB1072C01D02046A9
:107D8000E4E700BF0020E1E730B5ABB0AC216846C6
:107D9000FEF78EFB02208DF8000000208DF8020017
:107DA00005208DF803000121ADF84C100F49149106
:107DB00001218DF87C104021229144F250612391E1
:107DC0000B48299069460B4800F09BFC044600BF15
:107DD000254625B100BF284600F0F2F800BF00BFDD
:107DE0000121044800F08AFC2BB030BD90AD00208A
:107DF000CDDF020070AF002070B50321064800F00F
:107E000047FD044600BF254625B100BF284600F0C7
:107E1000D7F800BF00BF70BD70AF002010B504469A
:107E2000022001F07DF910BD10B5002407E00749DC
:107E3000096811F83400012105F056FB641C044860
:107E400000788442F3D3002010BD0000F8AD00207C
:107E5000FCAD00202DE9F84306460D4617460A2FD3
:107E600002D20720BDE8F88305F082FC38B905F09E
:107E700015FC044600BF204600B1F3E700BF1848D8
:107E8000066018480570184807601848002101600E
:107E900041608160C160164A1160516015E006EBD7
:107EA000C50814480068009098F802008DF8010099
:107EB00098F80000104A694605F06CFB044600BFC4
:107EC000204600B1CEE700BF00BF281EA5F101018A
:107ED000CDB2E4D1094A0021094800F0B9F8C1E760
:107EE000F8AD0020FCAD002000AE0020D0C1002085
:107EF00008AE0020D017030065AB020039A40200D1
:107F0000CC17030072B600BF04F036FD00BF00BFFF
:107F100004F0CCFA0028FBD100BF00BF1D491E4A67
:107F2000891AC908012242EA01401CA104F04CFC54
:107F300000BF1D48006800F0010000B100BE00BF96
:107F40001449154A891AC908022242EA014017A1B8
:107F500004F03AFC00BF00BF00BF00BF00BFBFF38A
:107F60004F8F00BF00BF00BF0F48E438006800F427
:107F7000E06012490843001D0B49E439086000BF66
:107F800000BF00BFBFF34F8F00BF00BF00BF00BFE7
:107F900000BFFDE718230300B022030046617461AF
:107FA0006C206572726F7200F0ED00E053797374AB
:107FB000656D207265736574000000000000FA05AD
:107FC0003EB50446002000900190029002946A465B
:107FD000002144F20100FFF795FF3EBD70B5044655
:107FE0000D46204602F0A0FC28B12946204602F0AA
:107FF0008FFC002070BD0520FCE7034609B90E2068
:10800000704712B1501E104008B10920F8E71960FE
:10801000501E988000209860D86000BFF0E770B5CF
:1080200004460D46204602F07FFCA188884205D810
:108030002946204602F08BFC002070BD0420FCE79E
:1080400010B5024802F07AFA10BD000010AE002010
:1080500010B503460C460AB9072010BD19684A61DD
:10806000012C01D1012000E0002008610020F4E78C
:1080700038B5134800680090082358221149124867
:10808000006803F0EDFA04460CB1204638BD0F4AF3
:1080900069460F4802F058FA04460CB12046F5E74D
:1080A00001210B4802F0F6FA01230A4A1946084852
:1080B00002F016FA0120084908702046E6E70000A1
:1080C000E4170300E0C10020D417030037EB0200DF
:1080D00010AE0020FFFF7F001CAE00202DE9F04114
:1080E00006460D4617463446207F10B10020BDE8F5
:1080F000F081A76102F018FD401941F10001C4E9C7
:108100000201206900B125612146002007F0F8FC3A
:10811000EDE770B504462546002028772946012062
:1081200007F0EEFC70BD00002DE9F04104460F4859
:10813000077821460E48FFF751FF804697B100208F
:108140000A49087001220B490B4803F011FE05464D
:1081500000BF2E4626B100BF3046FFF731FF00BFFB
:1081600000BF00BF4046BDE8F08100004EAE0020D9
:1081700048C200204DAE002034AE00202DE9F04171
:1081800088B004460E46174698462B4807601EB92D
:10819000072008B0BDE8F081B08882B22748316876
:1081A000FFF72BFF054600BF284600B1F1E700BFEF
:1081B000B08982B22248B168FFF71FFF054600BFB1
:1081C000284600B1E5E700BF20221E496846FEF7B9
:1081D00056F960690690207C08B1012000E000207B
:1081E0008DF814008DF81C80607C08B10E2000E032
:1081F00000208DF81500E0680290A06803902068C8
:10820000019060680090104A6946104803F06AFDCA
:10821000054600BF284600B1BBE700BF00200C495F
:1082200008702068401C28B101220A49074803F061
:108230009FFDAEE70020ACE748AE002048C200201A
:1082400058C20020E8170300D10E030034AE00200E
:108250004EAE00204DAE00202DE9F04105462946E6
:108260001448FFF7DCFE064606BB134C00272078B7
:108270001249085C20B1201D05F068FE074608E0A1
:1082800020780E49085C20B904F10C0005F006FDC9
:10829000074600BF57B90A490648FFF79FFE28B9AD
:1082A00001220749044803F085FD06463046BDE833
:1082B000F081000058C2002034AE0020D0AD002074
:1082C0004CAE002010B50446204606F081FD10BDDE
:1082D00070B5044625460E488068B0B1ADB9FFF7C9
:1082E00055FB06460A4800680A4908600848406885
:1082F0004FF0E021C1F804010020054988601EB953
:1083000000BF62B600BF00BF00BF00BF70BD00006D
:1083100068C2002000E100E0F8B505460C461746AB
:108320002088001DB84201D90C20F8BD684679DFCD
:10833000064600BF304600B1F7E700BF03202188A2
:1083400068542088401C2080192021886854208887
:10835000401C208020884119BDF8000008F0D8FF9B
:108360002188084420800020DFE770B505460C46D0
:108370002068401C28B1206803F04AFF206803F001
:10838000D4FE6068401C18B10021606803F0B3FEA1
:108390002868A169C0F8241500BF617D227D286886
:1083A00041EA0203C0F86C3500BFD4E90012286826
:1083B00004F0C5FF207D012814D1A068401C18B12D
:1083C0000021A06803F097FEE068401C28B1E06837
:1083D00003F01EFFE06803F0A8FED4E9022128683C
:1083E00004F096FF70BD70B505460C462068401C31
:1083F00028B1206803F017FF206803F0A2FE606830
:10840000401C18B10021606803F082FE2868A16951
:10841000C0F8241500BF617D227D286841EA02036F
:10842000C0F86C3500BFD4E90012286804F0BFFF23
:10843000207D012814D1A068401C18B10021A0683B
:1084400003F066FEE068401C28B1E06803F0EBFE34
:10845000E06803F076FED4E90221286804F088FF82
:1084600070BD0000002114E00C48D0F81024012356
:1084700008E000BFD0680079884201D1002303E002
:10848000D0680268002AF4D100BF0BB108467047DB
:10849000491C0A29E8DB4FF0FF30F8E718C4002038
:1084A0002DE9F04104460F46154615B90E20BDE8EA
:1084B000F0810020286000BF0CB90E20F7E700BF54
:1084C00000BF206808B90E20F1E700BF00BFE088B8
:1084D000C11700EB91718910A0EB810109B1072050
:1084E000E5E700BF384600F0DBFAC6B2142E01D132
:1084F0000520DCE72079B04201DC0420D7E7E188E1
:10850000206806FB010028600020D0E72DE9FC412F
:10851000054688461646002437880020308095F8A6
:108520002D0058B13A463146404600F0D1FA044693
:1085300000BF204608B1BDE8FC8100BFA87850B15B
:108540003A4631464046FFF7E7FE044600BF204664
:1085500000B1F0E700BFE87860B1E97848B23B4687
:108560003246414602F00BFA044600BF204600B1F5
:10857000E1E700BF686868B1696891F900003B46AF
:108580003246414608F0ACFB044600BF204600B12D
:10859000D1E700BF288900280EDD434606220221CC
:1085A00005F10800CDE9006708F082FF044600BF2E
:1085B000204600B1BFE700BF288A00280EDD4346F1
:1085C0000722032105F11000CDE9006708F070FFD4
:1085D000044600BF204600B1ADE700BF288B00284D
:1085E0000EDD43461522142105F11800CDE9006780
:1085F00008F05EFF044600BF204600B19BE700BFC5
:10860000286A58B13B4632464146286A01F0A6FD29
:10861000044600BF204600B18DE700BF686A58B12C
:108620003B4632464146686A02F0FAFE044600BF05
:10863000204600B17FE700BF95F82C0000280BDD35
:108640003B4632464146284606F0D6FC044600BF6B
:10865000204600B16FE700BF287858B13B4632464C
:108660004146284602F098FF044600BF204600B16C
:1086700061E700BF20465EE7F8B504460E461546A2
:10868000002000902B466A463146204600F008F84C
:1086900007460FB90020F8BDBDF800002044FAE7F6
:1086A000F0B504460D461E4604B10AB90020F0BDDF
:1086B000002103E0605C401C084481B2481CA842D1
:1086C00006DA10888842F5DC481C205CB042F1D103
:1086D000A94201DB0020EAE7881C87B2605C10B188
:1086E000605C401E00E0002083B213B1F818A8427D
:1086F00001DD0020DBE717801846D8E780F830104E
:10870000704770B504460D4605B10CB90E2070BD1A
:1087100005F1780001F0C3FC08B90720F7E7002055
:10872000A0702C2205F17801201DFDF7A8FE002085
:1087300084F83000D5F8A4006063D5F8A800A063E1
:108740004FF6FF70A4F8240404F58260C4F82004F6
:10875000002140F22C40C4F82614A4F82A14015534
:10876000207810B9FF2084F8540004F15500C4F8B3
:1087700010042046FFF7D5FA40F21441085304F2E2
:10878000144204F155012846FFF7C0FE064600BF1B
:10879000304600B1BBE700BF04F231204FF48361E3
:1087A00008512046FFF7BDFAA4F81C044FF483607B
:1087B000015904F21C4205F13C00FFF7A7FE0646F2
:1087C00000BF304600B1A2E700BF01215120015592
:1087D000208B81B248200153012084F83C00002105
:1087E0002164502001556169616404F13C0200215B
:1087F00004F1540072DF064600BF304600B186E740
:1088000000BF01202070304681E770B504460D4658
:108810002E462088102804D0112807D026280FD1F2
:1088200009E02146304605F0A5FC0AE02146304625
:1088300005F065FD05E02146304605F080FE00E0CC
:1088400000BF00BF70BD70B5044694F8540074DFDB
:10885000012084F82E04002084F8300400215020E8
:1088600001550621204602F0A5F8054600BF28461E
:1088700000B170BD00BFA178204600F009F80546A0
:1088800025B1A06B10B12846A16B88470020F0E706
:1088900070B504460E46207808B9082070BDA67051
:1088A000002140F22C40C4F82614A4F82A140155E3
:1088B000A07910B1A078012809D0E07910B1A07892
:1088C000012804D0E07970B1A07802280BD1606B48
:1088D00030B1012084F82D040820616B884702E044
:1088E000002084F82D0431462046FFF7E5F9A070FA
:1088F000606BA0B1A078032802D0A07804280ED124
:10890000607960B194F82E0448B9002084F83004EE
:10891000012084F82F040720616B884702E00020C3
:1089200084F82F04182104F13C00FDF7C1FD01205B
:1089300084F83C0004F12C0005F0A8FE20B194F866
:108940002C105120015502E001215120015594F8CD
:10895000240060B104F1280005F098FE20B194F8DD
:1089600028105220015502E001215220015500211A
:1089700050200155A078052824D2DFE800F01F031D
:108980000A11180004F13C01204606F0C7FB054619
:1089900019E004F13C01204606F0A8FB054612E070
:1089A00004F13C01204606F0CBFB05460BE004F148
:1089B0003C01204606F0F2FB054604E0002084F866
:1089C000310000E000BF00BFA07898B104F13C0284
:1089D00004F15400D4F8201472DF05460DB1284686
:1089E0005CE794F8301094F8540073DF05460DB13D
:1089F000284653E7606B18B194F83100616B8847E3
:108A000000204BE72DE9F041044600BF14B90E20C9
:108A1000BDE8F08100BF1C2221461C48FDF72FFD58
:108A20001B481A490860206860B120687ADF054653
:108A30000DB12846ECE7164821680A6802604968CB
:108A4000416005E012487BDF05460DB12846DFE7AF
:108A5000002617E006EB86000E4901EB800700BFF9
:108A60004FF6FF70388000BF0B4800EB461078606F
:108A70000A4A0021381DFFF7EBFA05460DB1032025
:108A8000C6E7761C052EE5D30020C1E7DCBF002039
:108A9000C0AD002078BF0020D8BE0020D513030051
:108AA00010B50446204600F005F808B1204610BD78
:108AB0001420FCE710B50446142C01DB002010BD87
:108AC0002146024802F027FEF9E70000FCBF002023
:108AD0002DE9FC4105460C46174620880930B8426E
:108AE00002D90C20BDE8FC8168466DDF064600BF58
:108AF000304600B1F6E700BF08202188685420887E
:108B0000401C20801B20218868542088401C208025
:108B100020882844DDF801100160BDF8051081802F
:108B20002088801D20809DF80000400818B9002092
:108B30002188685402E00120218868542088401C64
:108B400020800020CEE70000F8B505460F462888B3
:108B5000212852D006DC10280BD011283AD0132837
:108B60007DD15AE03B287CD0522867D05628F7D1D7
:108B700085E0AA884A494B4BC91AC908032343EA2E
:108B8000014049A103F02AFE072000F04FFC0446F3
:108B900000BF264626B100BF3046FFF711FA00BFDE
:108BA00000BFA8884949088008460188484802F063
:108BB00045FF044600BF264626B100BF3046FFF7FA
:108BC000FFF900BF00BF41480088FFF74BF8FFF7EF
:108BD00013F963E0AA883249324BC91AC908032342
:108BE00043EA01403BA103F0F9FD4FF6FF7037491E
:108BF0000880A88805F00AFF50E000200090A888AF
:108C000069468FDF044600BF264626B100BF3046C6
:108C1000FFF7D6F900BF00BF40E000231A468521C8
:108C20002A4800887FDF044600BF264626B100BFE1
:108C30003046FFF7C5F900BF00BF2FE000231A46FA
:108C4000194622480088B1DF044600BF264626B1F7
:108C500000BF3046FFF7B4F900BF00BF1EE01CE0C4
:108C6000FFE7A888132176DF044600BF264626B119
:108C700000BF3046FFF7A4F900BF00BF0EE0A88890
:108C8000132176DF044600BF264626B100BF3046DA
:108C9000FFF796F900BF00BF00E000BF00BFF8BDBE
:108CA00018230300B0220300436F6E6E6563746582
:108CB0006420776974682068616E646C65722063F3
:108CC0006F6E6E6563743A20256400008CAD0020E1
:108CD00064AF0020446973636F6E6E65637465648E
:108CE00020776974682068616E646C657220636FB8
:108CF0006E6E6563743A20256400000070B5054609
:108D00000E462888102802D011282CD115E01748CB
:108D1000006860B901F0B6FA044600BF34B11448E7
:108D2000006818B1204612490968884700BF0F48FB
:108D30000068401C0D49086016E00C480068401EA1
:108D40000A4908600846006860B9FEF7F3FF044668
:108D500000BF34B10648006818B1204604490968CC
:108D6000884700BF00E000BF00BF70BDBCAD002061
:108D7000B8AD002070B504460D462088102806D0F6
:108D8000112808D012280ED0502810D107E0204614
:108D900005F07EF90CE0204605F098FA08E0204640
:108DA00005F0FEFB04E0204605F05AF900E000BFA4
:108DB00000BF70BD2DE9F04104460F46A68820880B
:108DC000102806D0112817D019283DD01A2848D1CC
:108DD00016E005F0EDFD304605F0C6FD20B900BFF8
:108DE0000420FFF7EDF806E0E07B022803D13146CE
:108DF0001D4802F09FFC34E0304605F0FDFD30E0F8
:108E0000207A0509042D01DB012000E00020024644
:108E1000314615480C3001F0A3FD032D01DB012084
:108E200000E00020024631460F48083001F098FD6E
:108E3000022D01DB012000E00020024631460A48F5
:108E4000001D01F08DFD0CE0207A48B9607AC0F376
:108E5000C0052A46314604480C3001F081FD00BFB0
:108E600000BF00BFBDE8F08104C000202DE9F04143
:108E700086B00446884617461D4600BF1CB90E2022
:108E800006B0BDE8F08100BF01AA29466069FFF77E
:108E900007FB064600BF304600B1F1E700BF4FF6C2
:108EA000FF70854201D0019808B90520E8E70198D4
:108EB000007808B90820E3E73888F42801DD0720A6
:108EC000DEE700200290039004900590A088ADF8A2
:108ED0000800CDF81480049701208DF80A0002A93B
:108EE0002846AEDFCCE7000070B58EB004460E46D3
:108EF0003E4B0FCB09AD0FC500BF14B90E200EB00D
:108F000070BD00BF00BF0EB90E20F8E700BF30688B
:108F1000A061214609A862DF054600BF284600B1CE
:108F2000EDE700BF20788DF836000120ADF8340061
:108F3000A21C0DA9A8DF054600BF284600B1DEE748
:108F400000BF202101A8FDF7B3FA0220ADF804000C
:108F500020788DF80600F420ADF808000120ADF867
:108F60000A008DF810009DF8110020F0080008306C
:108F70008DF811009DF8110020F00400001D8DF8FF
:108F8000110001208DF815008DF81600608804F19D
:108F90000C0201A900F060FF05460DB12846AEE7BE
:108FA000202101A8FDF784FA0320ADF80400207801
:108FB0008DF80600F420ADF808000120ADF80A0095
:108FC0008DF810009DF8110020F0100010308DF881
:108FD000110001208DF815008DF816008DF817008E
:108FE0006088221D01A900F037FF88E7C41603003E
:108FF00070B504460D4605B104B970BD2E462088F3
:10900000102804D0502807D057280FD109E0214656
:10901000304605F075F80AE02146304605F0ECFAD6
:1090200005E02146304605F023FA00E000BF00BF0E
:1090300000BFE2E770B50446204608F063F9054634
:1090400005F0010070BD38B503F0FCFF044600BF19
:10905000254625B100BF2846FEF7B2FF00BF00BF7E
:10906000002000906946012003F03EFE044600BF48
:10907000254625B100BF2846FEF7A2FF00BF00BF6E
:10908000684603F0FFFE044600BF254625B100BF39
:109090002846FEF795FF00BF00BF38BD01460148D6
:1090A000405C70477C16030010B50146094B585CC4
:1090B00000BF4FF0A044234600BFD3F81045C44082
:1090C00004F001040CB1012000E00020024682F00F
:1090D000010010BD7C1603007CB500240DE008489B
:1090E000055D0326002000903346024601460190AC
:1090F000284602F09CFF00BF641C042CEFD37CBD0B
:109100007C16030010B5044604F0010008B100F01D
:109110004BF804F0020008B1FFF7DEFF10BD0000BD
:1091200010B502460949885C00BF4FF0A0442146B3
:10913000D1F80435012484409C43C1F8084501243A
:1091400084401C40C1F80C4500BF10BD78160300D8
:1091500010B504460249085D002103F07AF810BDFD
:109160007816030010B504460249085D012103F09A
:1091700070F810BD7816030010B50146094B585C15
:1091800000BF4FF0A044234600BFD3F80445C440BD
:1091900004F001040CB1012000E00020024610465A
:1091A00010BD0000781603007CB500240CE00948CF
:1091B000055D0020009003460122114601902846DB
:1091C00002F035FF00BF641C042CF0D300F004F85B
:1091D0007CBD00007816030010B5002403E0204693
:1091E000FFF7B6FF641C042CF9D310BD10B50024A2
:1091F00003E02046FFF7B6FF641C042CF9D310BD32
:1092000002464FF0FF30002106E0054B5B5C9342C5
:1092100001D1084602E0491C0429F6D300BF70477B
:109220007C16030070B505460C460026064805600E
:1092300014B1204606F09AF80448006810B9FEF709
:1092400079FD0646304670BDB8AD0020BCAD0020AB
:1092500010B5002000F014FB044600BF1CB1062C22
:1092600001D0204610BD00BF012000F009FB0446DC
:1092700000BF1CB1062C01D02046F3E700BF002040
:10928000F0E700002DE9F04106460F464FF00008D8
:1092900000243046FFF7B4FF0446042C3ED20FB33F
:1092A000012F02D0022F38D130E004EB44002149D5
:1092B00011F8008004EB44000844407850B11E4A85
:1092C0004FF480411D480068FEF708FF05460DB9C0
:1092D0001948067004EB4400164908448078184980
:1092E00008551AE015480068FEF713FF1448005DA2
:1092F00004EB44010F4A11448978884205D104EBFC
:1093000044001146084490F8028006E004EB440053
:109310000849084490F8018000BF00BFB8F1000F71
:1093200006D00848006818B14046064909688847D1
:10933000BDE8F081A8BE0020B0AD00208816030073
:10934000B1AD0020ACAD002010B50446042C03D212
:109350002046FFF7A9FE10BD0020FCE770B50546CA
:10936000042D06D0072D15D00A2D29D105F0A3FF15
:1093700027E013211448008876DF0446082C08D023
:1093800000BF264626B100BF3046FEF719FE00BFDB
:1093900000BF16E00C4800884FF6FF7188420ED1DE
:1093A0000A48FFF750FA0446082C08D000BF2646AA
:1093B00026B100BF3046FEF703FE00BF00BF00E04D
:1093C00000BF00BF70BD00008CAD002070AF00205A
:1093D00030B503460020042B23D2012A07D10129EE
:1093E00003D103F10E04E4B200E00024224679B177
:1093F000012902D0022911D104E003EB43040A4DF4
:109400002A550DE003EB4304074D2C44627007E03E
:1094100003EB4304044D2C44A27001E0072000BF7D
:1094200000E0072030BD0000A8BE002070B5044653
:1094300000250548007800F0010018B1204600F032
:109440005BF80546284670BDA4AD00202DE9F0412B
:1094500005460F4600241F4805601F48076005F0B9
:10946000020000B3002606E0012211463046FFF755
:10947000AFFF0446761C042E01D2002CF4D034B980
:1094800040F2333204211548FEF7E4FC044614B9D7
:10949000FEF7CAFC04462CB9114A00211148FEF718
:1094A000D7FD044600BF05F0010080B10120FFF7A1
:1094B00029FE2CB90C4A00210C48FEF7C9FD0446D0
:1094C0002CB90B4A01210B48FEF7C2FD0446204689
:1094D000BDE8F081A4AD0020ACAD00208C160300E7
:1094E000E99902008816030075B102008016030096
:1094F0001D7E0200841603002DE9F0470446002675
:109500000025DA48007820B10020D849087001F021
:109510001DFE182C7ED2DFE804F00C16174A7EB22E
:10952000F6F4F3F2F1F0EFEEEDECEBEAE9E8E7E662
:10953000E5E401F00BFECE480068FEF7EAFD0646C2
:10954000CC4804708DE100BF0020FFF715FE58B134
:109550000020FFF7FDFD022C02D14FF4E16001E095
:109560004FF47A60054609E00020FFF7FBFD022C6E
:1095700001D1C82001E04FF4C8700546BD48047011
:109580004FF40040A5FB00104FF47A73CF1840F160
:1095900000015A0000233846FCF724FF81460022D0
:1095A0004946B3480068FEF799FD064659E1002098
:1095B000FFF7E2FD58B10020FFF7CAFD032C02D1EE
:1095C0004FF4487001E04FF47A60054609E000204E
:1095D000FFF7C8FD032C01D1C82001E04FF4C8708B
:1095E0000546A44804704FF40040A5FB00104FF45A
:1095F0007A728F1840F10001520000233846FCF7C0
:10960000F1FE81460022494699480068FEF766FD52
:10961000064626E124E10020FFF7AEFD58B1002008
:10962000FFF796FD042C02D14FF47A6001E04FF46D
:109630007A6005460AE00020FFF794FD042C02D171
:109640004FF4C87001E04FF4C870054689480470B3
:109650004FF40040A5FB00104FF47A73CF1840F18F
:1096600000015A0000233846FCF7BCFE8146002268
:1096700049467F480068FEF731FD0646F1E00020CC
:10968000FFF77AFD50B10020FFF762FD052C01D1F4
:10969000C82001E04FF47A60054609E00020FFF79A
:1096A00061FD052C01D1C82001E04FF4C8700546CA
:1096B000704804704FF40040A5FB00204FF47A730B
:1096C000D71840F100015A0000233846FCF78AFE03
:1096D00081460022494666480068FEF7FFFC0646C0
:1096E000BFE0B8E0B6E0AAE0A1E098E092E05FE079
:1096F0005DE05BE059E057E051E042E033E024E018
:1097000015E00EE0FFE70020FFF70AFD594804705E
:10971000002240F2666156480068FEF7DFFC06460C
:109720009FE00020FFF71EFD5248047099E00120E1
:109730004E490870FFF7F4FC002240F266614C4885
:109740000068FEF7CBFC06468BE001204749087015
:10975000FFF7E6FC00224FF4005145480068FEF791
:10976000BDFC06467DE0012040490870FFF7D8FCAB
:10977000002240F266613E480068FEF7AFFC0646F4
:109780006FE0012039490870FFF7CAFC00224FF44E
:10979000005137480068FEF7A1FC064661E0FFF77C
:1097A00025FD344804705CE000BF00BF00BF00BF6F
:1097B00031480068FEF7ADFC0646C4F1110515B34B
:1097C0000EBB012D18D9A8B2C82148434FF400415F
:1097D00080FB01104FF47A728F1840F100015200A3
:1097E00000233846FCF7FEFD814600224946224808
:1097F0000068FEF773FC06460220FFF7B3FC012069
:109800001E49087005E00220FFF7A2FC00201B495A
:10981000087026E001F09AFC1648047021E001F07F
:1098200095FC0020FFF79EFC1248047019E001F03F
:109830008DFC0120FFF796FC0E48047011E001F04A
:1098400085FC0020FFF78EFC0120FFF78BFC094808
:10985000047006E000BFFFF7C9FC0648047000E092
:1098600000BF00BF3046BDE8F0870000A1AD00207A
:1098700080160300A0AD002084160300A8AD0020D0
:1098800010B504460121204607F0A4FE10BD0000DB
:109890002DE9FC4704460D461646A71C4FF001086B
:1098A0000020019001A8FEF70DFD304840682860B7
:1098B0002E4840682D498968411A2D480068401C8F
:1098C000A0EB010915E001212A4801F050FF01F049
:1098D0009FFC82465146274801F049FF23484068D3
:1098E00022498968411A22480068401CA0EB0109FE
:1098F00000BF4F45E7D8B8F1000F30D000210091EC
:1099000076B1009921F00301491C0091009921F0E2
:109910000401091D0091009964F3891100910DE083
:10992000009921F00301891C0091009921F00401A4
:10993000091D0091009964F39F5100910B494968FA
:109940000B4A12681140094A0C3202EB810000995F
:1099500001600649496839440C3A516000BF9DF8DE
:109960000400FEF7B5FC4046BDE8FC8718C40020A3
:109970008CAE002034C8002070B504460D460A2D78
:1099800003D10D212046FFF7F7FFA168481CA06016
:1099900020684554D4E90110884202D3204602F0E1
:1099A00040FA70BD0448806803494968884201D183
:1099B000012070470020FCE718C400200246002167
:1099C00008E0074B1B6803EBC1000378934200D10A
:1099D0007047491C034800788142F2DB0020F7E71A
:1099E000F8AD0020FCAD002010B50446207802211F
:1099F000FFF748FC10BD0000F8B5054612490320EA
:109A0000FFF724FD044600BF264626B100BF3046BE
:109A1000FEF7D6FA00BF00BF69460020FFF702FC40
:109A2000044600BF264626B100BF3046FEF7C8FAFE
:109A300000BF00BF9DF80000022801D1012000E016
:109A400000202870F8BD00005D9302002DE9F0436E
:109A50008446DDE90857079E0A9C0020BCF1050FEB
:109A600052D1012927D183F0FF0888EA020888F043
:109A7000010888EA06004FF0000805E015F8089094
:109A800089EA000008F10108B845F7D34FF0B108A2
:109A900084F800804FF0060884F80180A370E2701B
:109AA0004FF0010884F8048095F8008084F8058060
:109AB000A671E07170E10029FCD183F0FF0888EA0B
:109AC000020888F0020888EA0600884605E015F8D2
:109AD000089089EA000008F10108B845F7D34FF073
:109AE000B10884F800804FF0060884F80180A37064
:109AF000E2704FF0020884F8048095F8008084F842
:109B00000580A671E07147E1BCF1000F2BD183F015
:109B1000FF0888EA020888F0010888EA06004FF08A
:109B2000000805E015F8089089EA000008F101082E
:109B3000B845F7D34FF0B10884F800804FF007081C
:109B400084F80180A370E2704FF0010884F804806B
:109B500095F8008084F8058095F8018084F80680E7
:109B6000E671207218E1BCF1010F2BD183F0FF08E0
:109B700088EA020888F0010888EA06004FF0000829
:109B800005E015F8089089EA000008F10108B845D9
:109B9000F7D34FF0B10884F800804FF0070884F83D
:109BA0000180A370E2704FF0010884F8048095F8FA
:109BB000008084F8058095F8018084F80680E671BD
:109BC0002072E9E0BCF1020F2BD183F0FF0888EA94
:109BD000020888F0010888EA06004FF0000805E056
:109BE00015F8089089EA000008F10108B845F7D394
:109BF0004FF0B10884F800804FF0070884F8018026
:109C0000A370E2704FF0010884F8048095F800809A
:109C100084F8058095F8018084F80680E67120724A
:109C2000BAE0BCF1030F2BD183F0FF0888EA0208E9
:109C300088F0010888EA06004FF0000805E015F8F2
:109C4000089089EA000008F10108B845F7D34FF001
:109C5000B10884F800804FF0070884F80180A370F1
:109C6000E2704FF0010884F8048095F8008084F8D1
:109C7000058095F8018084F80680E67120728BE0FB
:109C8000BCF1040F2BD183F0FF0888EA020888F0AA
:109C9000010888EA06004FF0000805E015F8089072
:109CA00089EA000008F10108B845F7D34FF0B10880
:109CB00084F800804FF0070884F80180A370E270F8
:109CC0004FF0010884F8048095F8008084F805803E
:109CD00095F8018084F80680E67120725CE0BCF1A2
:109CE000060F2BD183F0FF0888EA020888F00108EC
:109CF00088EA06004FF0000805E015F8089089EAA8
:109D0000000008F10108B845F7D34FF0B10884F816
:109D100000804FF0070884F80180A370E2704FF0D4
:109D2000010884F8048095F8008084F8058095F88F
:109D3000018084F80680E67120722DE0BCF1070FE7
:109D40002AD183F0FF0888EA020888F0010888EA2F
:109D500006004FF0000805E015F8089089EA0000B9
:109D600008F10108B845F7D34FF0B10884F8008036
:109D70004FF0070884F80180A370E2704FF00108EB
:109D800084F8048095F8008084F8058095F80180B7
:109D900084F80680E6712072BDE8F0834FF0FF3151
:109DA000054A42F82010082804DBFF23A0F108012F
:109DB000503253547047000088C0002001460248CA
:109DC00050F821007047000088C000202DE9F04FB6
:109DD00003460C464FF0FF390AB1002000E008208E
:109DE00084460AB1082000E00C208046614624E049
:109DF000154850F82100401CF0B91D46084627467A
:109E000016464FFA80FBDFF840A00AF1300A0AF844
:109E100005B0DFF834A04AF820704EB94FFA85FB40
:109E2000A0F1080ADFF820E00EF1500E0EF80AB09B
:109E300000BF4FFA81F902E0491C4145D8D300BF69
:109E40004846BDE8F08F000088C000200146014868
:109E500040567047B8C0002070B590B006460C461A
:109E60001546A07818B901208DF80E0002E0A07800
:109E70008DF80E002088ADF80C0000200290607C68
:109E800002A905F0B9F9A07C0DF1090105F0B4F9BA
:109E9000E07B08B1012000E000209DF80A1060F38B
:109EA000C3018DF80A10207C08B1012000E00020D9
:109EB0009DF80A1060F304118DF80A10207B08B198
:109EC000012000E000209DF80A1060F300018DF8E9
:109ED0000A10207D08B1022000E001209DF80A1040
:109EE00060F342018DF80A101C2109A8FCF7E0FA82
:109EF000607BC0F3001018B9607BC0F34010F8B16C
:109F000000200090E07C0DF1010105F075F900BF23
:109F10009DF8000020F00F00401C8DF800009DF817
:109F2000000020F0F00010308DF8000000BF9DF818
:109F3000020020F00600801C8DF80200CDF838D019
:109F4000607B8DF82400A07B8DF82500142104A8E7
:109F5000FCF7AEFA03A8049002A80590A088ADF81B
:109F60001C00A06820B1E088ADF81800A068089037
:109F7000A069002849D000200190A0690088ADF8B0
:109F80002C00A0694088ADF82E00A06940680A90B6
:109F900001A80D90A169087B01A905F02DF9A1691F
:109FA000487B0DF1050105F027F9A069807A08B119
:109FB000012000E000209DF8061060F3C3018DF839
:109FC0000610A069C07A08B1012000E000209DF8C9
:109FD000061060F304118DF80610A069007A08B12C
:109FE000012000E000209DF8061060F300018DF8CC
:109FF0000610A069807B08B1022000E001209DF8D6
:10A00000061060F342018DF80610E06908B1E069BE
:10A010000C902B4604AA09A93046AADF10B070BDE7
:10A0200070B505460DB9094C01E0084C083409E04B
:10A03000204600F0B5FF064606B904E028467168E0
:10A04000884700BFF4E700BF70BD00007CC000205F
:10A0500010B504462CB90120064948700020FFF7CE
:10A06000DFFF012C04D1012002498870FFF7D8FFDF
:10A0700010BD000074C000202DE9F04702461346D1
:10A080008C46D3E90245DCE90267B6EB040877EBBE
:10A09000050002D30120BDE8F0870020FBE7014660
:10A0A0008878012805D191F82000012801D10020ED
:10A0B0007047886A042802D0486A042801D1002029
:10A0C000F6E70120F4E733B58BB005460020009099
:10A0D0000C9878B100240BE021460CA801F01BFB82
:10A0E00028B1009A501C009001A820F81240641C6E
:10A0F000142CF1D32C2269462846FCF7C0F90DB088
:10A1000030BD01460888062808DB0888B0F5486F8E
:10A1100006DD08884FF6FF72904201D00720704795
:10A120004888062808DB4888B0F5486F06DD48886F
:10A130004FF6FF72904201D00720F0E708884FF6F3
:10A14000FF72904208D04888904205D008884A881B
:10A15000904201DD0720E2E70020E0E72DE9F04131
:10A1600007460D46144698462088801D404502D972
:10A170000C20BDE8F0813846FFF7C3FF064600BF5C
:10A18000304600B1F5E700BF0520218868542088DB
:10A19000401C20801220218868542088401C208088
:10A1A00022885119388807F0B3F8218808442080A4
:10A1B00022885119788807F0ABF82188084420805C
:10A1C0000020D6E710B5044600BF2046FDF7F8FE94
:10A1D00000BF10BD30B587B01C216846FCF768F998
:10A1E000002000904FF4A03001904FF4F020029036
:10A1F00003208DF80C000020ADF80E008DF8100043
:10A2000009480590094806906846FEF7FBFB04469E
:10A2100000BF254625B100BF2846FDF7D1FE00BF8F
:10A2200000BF07B030BD000035E00200C5A102004C
:10A23000F8B505460C46607A88B9207A10B91048FE
:10A24000476801E00E4887682A4639466068FDF78E
:10A2500045FF064616B1304604F06EFE0EE00020C3
:10A2600020720748406948B101208DF80000ADF820
:10A270000250034841696846884700BFF8BD0000A6
:10A28000DCBF002010B5012200210846FFF7A0F82E
:10A29000044600BF1CB1072C01D0204610BD00BFF2
:10A2A000072202210120FFF793F8044600BF1CB1EA
:10A2B000072C01D02046F1E700BF04220221002034
:10A2C000FFF786F8044600BF1CB1072C01D02046DA
:10A2D000E4E700BF0020E1E770B5174A0121174805
:10A2E000FDF7B6FE044600BF254625B100BF28464F
:10A2F000FDF766FE00BF00BF114A01211148FDF7BE
:10A30000A7FE044600BF254625B100BF2846FDF73D
:10A3100057FE00BF00BF0C4A01210C48FDF798FE14
:10A32000044600BF254625B100BF2846FDF748FE7C
:10A3300000BF00BF70BD000041FB020054160300C7
:10A34000F1F602005816030065FB02005C160300DC
:10A350002DE9FF4105460C46002002900390ADF820
:10A360000840ADF80A40009001906A4602A92846CC
:10A3700090DF0646002E32D0304602F07FFF0746BF
:10A3800019491A4A891AC908012242EA01403B4682
:10A390002A46174902F02EFABDF8000010B9BDF8A0
:10A3A000020068B1BDF80230BDF800200E490F4F21
:10A3B000C91BC908012747EA01400EA102F01AFA99
:10A3C000BDF8040058B1BDF804200749074BC91A6D
:10A3D000C908012343EA0140164902F0FFF930465B
:10A3E00004B0BDE8F0810000B0220300B0220300F9
:10A3F0000C1B030054686520726571756573746584
:10A40000642054582F5258207061636B6574206C1F
:10A41000656E67746820697320746F6F206C6F6E4F
:10A42000672062792025752F2575206F6374657408
:10A43000732E0000581B03002DE9F04180460024D4
:10A4400014E01248006800EBC405287803F01CF9FA
:10A4500007466878012800D100E00020784080F0AD
:10A4600001062878314600F0CDF9641C08480078D0
:10A470008442E6DB0748D0E90010002359405840E9
:10A48000014301D005F05EFBBDE8F081F8AD00208E
:10A49000FCAD002008AE002010B50021034801F0FB
:10A4A00087F9044684F3100010BD000034C8002072
:10A4B00070B505460C464FF4803000FA04F128468A
:10A4C00000F085F970BD70B505460C464FF4A070DC
:10A4D00000EB840086B23146284600F00BFA70BDCE
:10A4E0002DE9F04704460D4616461F464FF48030CE
:10A4F00000FA05F84FF4A07000EB85001FFA80F910
:10A5000026F07F464146206802F0D8FB414620688D
:10A5100002F0CEFB4946206802F0C3FB32462946D2
:10A52000206802F0B5FB4146206802F0C4FB1FB171
:10A530004146206802F0C5FBBDE8F08710B504462F
:10A54000206802F0AAFB10BD2DE9F04704460D4635
:10A5500017466079324941F820706079314901EB42
:10A56000C000007968B108262F49304A891AC90805
:10A57000022242EA01402EA102F026F93046BDE84F
:10A58000F08729882068C0F8081500BF94F90420D6
:10A59000AB7810461946002808DB4FEA417C4FEAA9
:10A5A0001C68DFF8B0C00CF800800BE04FEA417C7B
:10A5B0004FEA1C69DFF8A0C000F00F08A8F10408FA
:10A5C0000CF8089000BF00BF94F90410084600285A
:10A5D0000DDB00BF00BF00F01F0301229A404309BA
:10A5E0009B0003F1E023C3F8002100BF00BF00BFC0
:10A5F00000BF012061790B4A02EBC101087160794B
:10A60000114641F8304000260749084A891AC9080E
:10A61000032242EA014011A102F0D6F83046AEE72B
:10A6200050AE002054AE002000230300B0220300EF
:10A6300052544320696E7374616E636520616C725D
:10A640006561647920696E697469616C697A6564B1
:10A650002E00000000E400E018ED00E05254433A00
:10A6600020696E697469616C697A65642E00000006
:10A6700010B5014691F90400002807DB00F01F0324
:10A6800001229A40024B440943F8242000BF10BD28
:10A6900000E200E070B505460C462246022128463D
:10A6A00000F0A1F870BD10B504464FF48271204649
:10A6B00000F020F910BD10B504460021206802F01A
:10A6C00003FB10BD10B504460421206802F0FCFA1B
:10A6D00010BD2DE9F84F04468846154699464FF4BB
:10A6E000803000FA08FA4FF4A07000EB88001FFADF
:10A6F00080FB25F07F455146204600F068F8206831
:10A7000002F0CBFA06464146206802F0BBFA009000
:10A7100032464146206802F0BBFA5946206802F0F2
:10A72000C0FA3146009804F0A7FF012806D1102096
:10A7300002F0BAFE5946206802F0B3FA206802F02F
:10A74000ACFA06463146284604F096FF07465146C5
:10A75000206802F0B0FA012F0FD16A1C4146206830
:10A7600002F096FA102002F09FFE206802F095FA9F
:10A77000B04225D00D20BDE8F88F2A46414620681A
:10A7800002F086FA206802F088FA0646681E314612
:10A7900004F072FF07466FF07F40A0EB0900B8425B
:10A7A00001D20D20E7E75FB96A1C4146206802F03C
:10A7B0006FFA206802F071FAB04201D00D20DAE79A
:10A7C00001225146204600F00EF80020D3E770B574
:10A7D00004460D462946206802F06AFA2946206898
:10A7E00002F06CFA70BD70B504460E46154631464F
:10A7F000206802F060FA1DB13146206802F061FA6B
:10A8000070BD0000F8B505460C46284604F0C2FDB0
:10A8100005286AD2DFE800F003212A393F00DCB1C5
:10A820000121284604F0C6FD002000906846FDF78F
:10A8300049FD2A460126002730463946FBF703FE2C
:10A840002B4AD2E9003218431143294A03C29DF82A
:10A850000000FDF73DFD00BF47E00CB1022000E025
:10A8600000200146284604F0A5FD3EE044B1032146
:10A87000284604F09FFD0121284606F00AFE03E069
:10A880000121284604F096FD2FE01CB9042128463A
:10A8900004F090FD29E024B10321284604F08AFD4C
:10A8A00022E00021284604F085FD0021284606F01C
:10A8B000F0FD002000906846FDF704FD2A460126C1
:10A8C000002730463946FBF7BEFD0A46C143D04358
:10A8D000074B0CCB11401840054AC2E900109DF807
:10A8E0000000FDF7F5FC00BF00BF00BFF8BD000091
:10A8F00008AE002070B505460C462868015929B1FC
:10A900002146286802F0CDF9012070BD0020FCE747
:10A9100070B504460D462A460021204600F00EF888
:10A92000A068401CA06070BD01468A68C868801A93
:10A93000704701468A68C868801A704710B58368F6
:10A940000B44848823400468E35C137010BDC26824
:10A9500083881A4003689954C268521CC2607047C9
:10A9600070B505460E46144624B13146284600F01F
:10A97000E1FE03E03146284600F0BEFE70BD30B572
:10A9800004461088C01C984201D90C2030BD02201A
:10A99000158848551088401C10800120158848559E
:10A9A0001088401C108015884C551088401C108061
:10A9B0000020EBE770B504460D4640F21442115BEF
:10A9C0000122D4F81004FDF757FE064606B1357093
:10A9D00004F13C0204F5826104F1540072DF70BDA1
:10A9E00070B504460D46E0B2FDF736FC204670BD5A
:10A9F0003EB500BF9DF8000020F00F00401C009005
:10AA00009DF8000020F0F0001030009000BF1122EF
:10AA100014A168467CDF044600BF254625B100BF6F
:10AA20002846FDF7CDFA00BF00BF0020019002903C
:10AA30001020ADF804003C20ADF806000020ADF871
:10AA400008004FF4C870ADF80A0001A87ADF044688
:10AA500000BF254625B100BF2846FDF7B1FA00BF6B
:10AA600000BF3EBD5065726970686572616C5F447D
:10AA7000657669636500000070B505460C46608820
:10AA80000D490988884215D1208840F677218842EF
:10AA900010D1A088C01E094908800949094A891AAD
:10AAA000C908032242EA014004490B880A8806A12A
:10AAB00001F0A0FE70BD00008CAD00208EAD002026
:10AAC00018230300B022030044617461206C656E9A
:10AAD0002069732073657420746F2030782558289E
:10AAE0002564290070B50E490E4800F009FF0446A0
:10AAF00000BF254625B100BF2846FDF761FA00BF1B
:10AB000000BFF721074800F0ECFE044600BF2546D1
:10AB100025B100BF2846FDF753FA00BF00BF70BD46
:10AB200079AA020008AF002070B50B48FFF706FDB8
:10AB30000A4B0CCB841843F10005094903C9201ABC
:10AB400075EB010004D24FF08073E41845F1000565
:10AB50002046294670BD000010AE002020AE002027
:10AB600028AE00202DE9F04104468846E0B2FEF709
:10AB700025FF0546287802F087FD074668780128FA
:10AB800000D100E00020784080F001064EB1064878
:10AB9000D0E90010002359405840014301D104F08E
:10ABA000D1FFBDE8F081000008AE00202DE9FF478D
:10ABB0000746884615461D480078012801D1BDE8A2
:10ABC000FF8701201949087015B94FF0CC7607E0CE
:10ABD000012D01D1AE0603E0022D01D14FF0CD666B
:10ABE000134B0FCB8DE80F000097CDF80480029631
:10ABF0000023104A6946104801F036F8044600BFA9
:10AC0000A146B9F1000F04D000BF4846FDF7D8F9BE
:10AC100000BF00BF04B1D2E7DFF81C9009F10400C7
:10AC200002F03AFE00BF00BFC9E70000D5AE002029
:10AC3000681A0300C1060300581A03002DE9F843FF
:10AC400006460F4690461C461348002101604160AD
:10AC500001810770012006E0411E18F801100E4A1C
:10AC60001154411CC8B2A042F6DD00200B49087007
:10AC70000090601CC3B2084A3146094801F01CF834
:10AC8000054600BF054800780028FBD00DB1BDE89F
:10AC9000F88300BFFBE70000C0CA0020D4AE00204C
:10ACA000581A030010B501F001FC08B901F09EFF2D
:10ACB00010BD7047024600210CE001EB8100074BFC
:10ACC00033F82000904204D101EB810003EB8000B7
:10ACD0007047491C0529F0D30020F9E778BF002010
:10ACE0002DE9FC5F83460E4691461F46DDE90C4583
:10ACF000002E01DA704200E0304682464FF0010833
:10AD000003E09AFBF9FA08F10108CA45F9DA474568
:10AD100000D9B84634B1002E03DB05F00400042846
:10AD200000D1641E05F0020000B167B105F001001A
:10AD300048B944B104E0641E20215846FEF71CFEC9
:10AD40000CB1A045F7D3002E05DA76422D215846E6
:10AD5000FEF712FE07E005F00400042803D12B21C2
:10AD60005846FEF709FE05F0020002280DD105F055
:10AD7000010050B94FB944B104E0641E3021584677
:10AD8000FEF7FAFD0CB1A045F7D33B464A463146E3
:10AD90005846CDE9004506F0C1FABDE8FC9F000029
:10ADA0002DE9F04104460E464FF48E71206802F002
:10ADB000A8FA4FF4A271206802F0A3FA1A49206899
:10ADC00002F0AEFA206802F083FB054637462846BB
:10ADD0003946002804DB4A07130E144A135408E0CE
:10ADE0004A074FEA126C124A00F00F031B1F02F8C9
:10ADF00003C000BF00BF206802F06AFB054628467A
:10AE000000280DDB00BF00BF00F01F0201219140B0
:10AE10004209920002F1E022C2F8001100BF00BF17
:10AE200000BF00BFBDE8F0818000020000E400E048
:10AE300018ED00E02DE9F04104460E464FF488710C
:10AE4000206802F08EFA4FF49071206802F089FABF
:10AE50004FF49271206802F084FA4FF4A2712068D6
:10AE600002F07FFA4FF4AC71206802F07AFA1B49C5
:10AE7000206802F086FA206802F02EFB054637466D
:10AE800028463946002804DB4A07130E144A135497
:10AE900008E04A074FEA126C124A00F00F031B1F2A
:10AEA00002F803C000BF00BF206802F015FB054692
:10AEB000284600280DDB00BF00BF00F01F02012163
:10AEC00091404209920002F1E022C2F8001100BF55
:10AED00000BF00BF00BFBDE8F081000010034200CA
:10AEE00000E400E018ED00E030B5024600201378E1
:10AEF000C3F38003D3B1137803F00303012B02D013
:10AF0000022B10D107E01388C3F383139B1C0C683A
:10AF100023440B6008E00B680225146805EB945489
:10AF200023440B6000E000BF00BF012030BD2DE9CD
:10AF3000F0410446A08800EB020CB4F80480904570
:10AF400001DD104600E0A088A8EB0005E088C618E7
:10AF5000B4F80680984501DD184600E0E088A8EBCB
:10AF600000074888B4F80080404504DB4888B4F8FE
:10AF70000280404502DD0020BDE8F0818888A842BB
:10AF800002D38888604501D90020F5E7C888B84217
:10AF900002D3C888B04201D90020EDE70120EBE7D9
:10AFA0000146086808B102680A607047026803E059
:10AFB0008A4200D170471268002AF9D103680BB1A8
:10AFC000036800E000230B60016000BFF2E710B5EA
:10AFD000044622460121002001F0D8F8002105E0B6
:10AFE00054F8210008B1012010BD491C0029F7D0F8
:10AFF0000020F9E710B50024802000F060F800BFC1
:10B0000003E0202000F079F8641C462CF9DB10BD29
:10B0100010B5322000F09CFD302000F050F80520E3
:10B0200000F096FD302000F04AF8012000F090FD7D
:10B03000302000F044F80A2000F08AFD202000F0C3
:10B040003EF80A2000F084FD282000F038F80120A6
:10B0500000F07EFD082000F032F8012000F078FDBD
:10B06000012000F02CF8012000F072FD012000F01A
:10B070006FFD062000F023F8012000F069FD0C2090
:10B0800000F01DF810BD70B505460C4635B1012D18
:10B0900007D0022D08D0032D0CD108E044F0800425
:10B0A00008E044F0C00405E044F0940402E044F0F9
:10B0B000D40400BF00BFE0B200F001F870BDF8B5E5
:10B0C000044604F0F005F02000EA041645F00C00F8
:10B0D0008DF8000045F008008DF8010046F00C00E6
:10B0E0008DF8020046F008008DF8030004236A463C
:10B0F00000212720FFF7A2FDF8BDF8B5044604F0B3
:10B10000F005F02000EA041645F00D008DF800006F
:10B1100045F009008DF8010046F00D008DF80200A1
:10B1200046F009008DF8030004236A460021272019
:10B13000FFF784FDF8BD10B5044603E014F8010BD9
:10B14000FFF7DBFF20780028F8D110BD10B50848C4
:10B15000007850B1002405E0022C02D02046FDF713
:10B16000F7FF641C042CF7D301E0FEF735F810BD9F
:10B17000A8AD002010B504460448007800F0010096
:10B1800018B103480078FEF7B7F910BDA4AD002050
:10B19000A0AD002070B500F0F3FC044600BF2546CA
:10B1A00025B100BF2846FCF70BFF00BF00BF002001
:10B1B00000F024FD70BD000010B502F0FFF820B9CA
:10B1C00002F050F900200149887010BD74C00020C1
:10B1D000F721018017214180002101714171FB217C
:10B1E00081711B21C171704770B54FF480410020FF
:10B1F00001F082FB044600BF254625B100BF28466A
:10B20000FCF7DEFE00BF00BF01F03CF970BD00009E
:10B210002DE9FF4100272E4800F0A2FA2C48001F1C
:10B2200000F09EFA2B48806803902B48056803982D
:10B23000284028490C3101EB800800BF03A9404693
:10B24000FFF752FE30B10398284022490C3101EB40
:10B25000800800E000E0F1E700BF00240AE0039866
:10B26000411C284003911B490C3151F820004DF836
:10B270002400641C022CF2D3009800F00300012883
:10B280000DD0022814D1BDF806700421009801EBFE
:10B290009050401E039901EB9000039009E0BDF827
:10B2A00006700098C0F3831003990844039000E0EF
:10B2B00000BF00BF0648001F00F04BFA064616B15B
:10B2C000044903988860384604B0BDE8F081000066
:10B2D00030C8002018C400208CAE002008B53B4ABE
:10B2E0003B493C4803F0C0FB32223B493B4803F05A
:10B2F000EEFBFFF74FFFFFF7DCFC03F0A5FB05F0CB
:10B3000075FEFFF771FF05F05BF9FEF7E5FF002220
:10B310004FF4804132480068FCF7E0FE044600BF6D
:10B32000254625B100BF2846FCF74AFE00BF00BFF6
:10B3300000224FF4A0312B480068FCF7CFFE0446F2
:10B3400000BF254625B100BF2846FCF739FE00BFE7
:10B3500000BF00224FF4404123480068FCF7BEFEC6
:10B36000044600BF254625B100BF2846FCF728FE4D
:10B3700000BF00BF6846FEF73FFB03F067FAFDF72A
:10B3800062FEFFF735FBFFF7ADFB03F081FEFCF734
:10B39000FBFCFEF71FFF1549154A891AC90803224D
:10B3A00042EA014013A101F00FFAFCF725FD022249
:10B3B00003211046FBF7EAFBFFF72AFEFFF71AFE10
:10B3C00000BF03F0A3FAFFF76DFCFAE764B50020B5
:10B3D00050B5002040B5002014B4002008B400206F
:10B3E00054160300581603005C16030018230300CC
:10B3F000B02203004465627567206C6F6767696EF1
:10B400006720666F722055415254206F7665722016
:10B4100052545420737461727465642E00000000ED
:10B420002DE9F04105460E4614469846A888871C2B
:10B430002088801C3844404502D90C20BDE8F081AA
:10B44000FE2F01D90C20F9E7781C21887054208840
:10B45000401C2080FF20218870542088401C2080C0
:10B4600022889119288805F053FF218808442080FC
:10B47000A88800280DDDA86808B90720DEE7AA889B
:10B4800023889819A968FAF7FAFF2088A988084440
:10B4900020800020D2E72DE9FF4F87B00446914677
:10B4A0001E46A2462546BAF806009AF805104843FB
:10B4B000001F0690BAF806B0301DB0FBFBF00590F7
:10B4C000301DB0FBFBF10BFB11000490D9F800001C
:10B4D00081190698814202D90698801B01E0D9F8AB
:10B4E00000000746C9F8007003E02D680598401E6B
:10B4F000059005980028F8D103900498ABEB00085C
:10B50000B84501D9384600E04046804623E003991B
:10B51000089808440290281D049908440190149842
:10B5200028B14246DDE90110FAF7A9FF04E04246DE
:10B53000DDE90101FAF7A3FF002004902D68A7EBD5
:10B540000807039840440390BB4501D9384600E002
:10B550005846804600BF002FD9D10BB0BDE8F08F10
:10B5600070B503460C469CB101F0EAF9054600228D
:10B570000AE0084800EB820108881E68B04202D148
:10B580001A60002070BD521CAA42F2D30520F9E7D0
:10B590000020F7E7000000002DE9F84F05460F46B0
:10B5A000144698462878012804D1687810B90720F5
:10B5B000BDE8F88F2088801C404508D828780128ED
:10B5C00007D12088801C69780844404501D90C20A7
:10B5D000EEE72088A8EB0000801E86B20096218846
:10B5E000891CC81969467DDF814600BF484600B105
:10B5F000DEE700BF2878022804D06878BDF8001084
:10B60000884206DBBDF80000B04202DC4FF0090AB8
:10B610000BE04FF0080A2878012805D16878B0427D
:10B6200002DC6878009000E00096BDF80000FE287B
:10B6300001D90C20BCE7BDF80000401C21887854DB
:10B640002088401C2080208807F800A02088401C0B
:10B6500020802088BDF80010084420800020A7E743
:10B6600010B5044609B90E2010BD92FBF3F003FBA0
:10B67000102008B10920F7E7216000206060A06079
:10B68000A281E38100BFEFE770B504460D4629466D
:10B690002046FAF7BFFD18B12A882168881870BDC6
:10B6A0000020FCE770B505460C462088618888427A
:10B6B00004D12846FAF7F0FD012070BD0020FCE718
:10B6C00070B504460D4629462046FAF7C8FD18B164
:10B6D0006A882168881870BD0020FCE770B50546AF
:10B6E0000C4620886188884204D12846FAF7AEFDCE
:10B6F000012070BD0020FCE770B505460C4604F043
:10B700001F0301229A40D143620905EB820000F039
:10B7100039F8064670BD10B50246480952F82000B7
:10B7200001F01F040123A340184008B1012010BDFF
:10B730000020FCE770B505460C4604F01F0301220B
:10B7400002FA03F1620905EB820000F03CF80646BC
:10B7500070BD10B504460021204600F01EF810BD53
:10B7600010B504460121204600F02DF810BDF8B5B3
:10B7700004460D466A4629462046FAF7E2FD06468B
:10B780000098F8BDF8B504460D466A46294620469D
:10B79000FAF7BDFD06460098F8BDF8B504460D461B
:10B7A0006A4629462046FAF7B2FD06463046F8BDFD
:10B7B000F8B504460D466A4629462046FAF78EFD3E
:10B7C00006463046F8BDF8B504460D466A46294699
:10B7D0002046FAF78FFD06460098F8BDF8B50446F6
:10B7E0000D466A4629462046FAF7B8FD06460098F7
:10B7F000F8BDF8B504460026002000906846FCF726
:10B8000061FD206800686168884215D92068006879
:10B81000401E226810600178204600F033F806468A
:10B82000207A21680978401AC5B220680079A842B8
:10B8300001DA2068057100BF9DF80000FCF748FDA3
:10B840003046F8BD0246D068081A138AB0FBF3F000
:10B85000C0B27047F8B504460D462E460020009051
:10B860006846FCF72FFD31462046FFF7EBFF2168C5
:10B870000A68511C2368196010709DF80000FCF7DD
:10B8800027FDF8BD0246138AD06801FB030070470C
:10B8900010B5014600BF09B90E2010BD00BF087ADF
:10B8A0000B79C01AC2B2D1E90030186005E008680F
:10B8B0000368581C0C6820601A70101EA2F1010366
:10B8C000DAB2F4D10B68187100BFE6E730B5024672
:10B8D0000B46D40802F00702012090401D5D28406D
:10B8E00030BD024600BF0AB90E20704700BF1729BD
:10B8F00001DBF72901DD0720F7E711800020F4E7DD
:10B9000070B504460E4600BF0CB90E2070BD00BFD6
:10B91000A665F72020806080FB202071002505E0CF
:10B92000A11D01EBC500FFF753FC6D1C0A2DF7D3D9
:10B930000020EBE72DE9F047064688464546B488E7
:10B940000A2C01DBBDE8F0873088242820D006DCF3
:10B95000102809D011280CD0232823D11DE03A2823
:10B960000CD055281ED10EE03146284602F00AFCC4
:10B9700019E03146284602F0DBFC14E03146284647
:10B9800002F044FD0FE03146284602F0DBFC0AE0FD
:10B990003146284602F058FC05E03146284602F0C0
:10B9A0007DFC00E000BF00BFA81D00EBC4000079D3
:10B9B00018B3A81D30F834102046A5DF074657B944
:10B9C0000021A81D00EBC40001710121A81D00EB9E
:10B9D000C400417110E0112F0ED0384601F04EFC2A
:10B9E00081460749074A891AC908012242EA0140EB
:10B9F0004A4605A100F0F2FE00BF00BFA2E700002A
:10BA0000B0220300B022030073645F626C655F675D
:10BA1000617474635F65786368616E67655F6D7498
:10BA2000755F726571756573742829207265747508
:10BA3000726E65642025732E00000000024600BF70
:10BA40000AB90E20704700BF00BF1078DE2801D071
:10BA50000820F7E700BF51800020F3E7024600BF4F
:10BA60000AB90E20704700BF00BF09B90E20F9E7E0
:10BA700000BF1078DE2801D10820F3E70868506085
:10BA8000DE2010704FF6FF7050800020EAE770B59E
:10BA900004460E4600BF06B970BD00BF00BF04B922
:10BAA000FAE700BF354600BF2878DE2800D0F3E76C
:10BAB00000BFA0886988884202D1284605F0D3FCDF
:10BAC0002088012806D0022809D0112811D0512839
:10BAD00017D109E0211D284602F052FD12E0211D78
